{
  "abi": [
    {
      "inputs": [
        {
          "internalType": "address",
          "name": "_manager",
          "type": "address"
        }
      ],
      "stateMutability": "nonpayable",
      "type": "constructor"
    },
    {
      "inputs": [
        {
          "internalType": "address",
          "name": "value",
          "type": "address"
        }
      ],
      "name": "ActionExecutionError",
      "type": "error"
    },
    {
      "inputs": [],
      "name": "ExecutionPaused",
      "type": "error"
    },
    {
      "inputs": [
        {
          "internalType": "address",
          "name": "value",
          "type": "address"
        }
      ],
      "name": "InvalidActionExecutor",
      "type": "error"
    },
    {
      "inputs": [],
      "name": "InvalidActorAddress",
      "type": "error"
    },
    {
      "inputs": [],
      "name": "InvalidInputAmount",
      "type": "error"
    },
    {
      "inputs": [],
      "name": "InvalidInputTokenAddress",
      "type": "error"
    },
    {
      "inputs": [],
      "name": "InvalidScenarioExecutor",
      "type": "error"
    },
    {
      "inputs": [],
      "name": "InvalidScenarioFinalOutput",
      "type": "error"
    },
    {
      "inputs": [],
      "name": "InvalidScenarioId",
      "type": "error"
    },
    {
      "inputs": [
        {
          "internalType": "address",
          "name": "value",
          "type": "address"
        }
      ],
      "name": "InvalidSource",
      "type": "error"
    },
    {
      "inputs": [],
      "name": "NoValidSources",
      "type": "error"
    },
    {
      "inputs": [
        {
          "internalType": "address",
          "name": "value",
          "type": "address"
        }
      ],
      "name": "SourceValidationError",
      "type": "error"
    },
    {
      "inputs": [],
      "name": "Unauthorized",
      "type": "error"
    },
    {
      "anonymous": false,
      "inputs": [
        {
          "indexed": false,
          "internalType": "bool",
          "name": "_old",
          "type": "bool"
        },
        {
          "indexed": true,
          "internalType": "bool",
          "name": "_new",
          "type": "bool"
        }
      ],
      "name": "ExecutionStateUpdated",
      "type": "event"
    },
    {
      "anonymous": false,
      "inputs": [
        {
          "indexed": true,
          "internalType": "enum RegisterType",
          "name": "t",
          "type": "uint8"
        },
        {
          "indexed": true,
          "internalType": "address",
          "name": "addr",
          "type": "address"
        },
        {
          "indexed": true,
          "internalType": "bool",
          "name": "value",
          "type": "bool"
        }
      ],
      "name": "RegisterUpdated",
      "type": "event"
    },
    {
      "anonymous": false,
      "inputs": [
        {
          "indexed": true,
          "internalType": "address",
          "name": "",
          "type": "address"
        },
        {
          "indexed": true,
          "internalType": "uint64",
          "name": "",
          "type": "uint64"
        },
        {
          "indexed": true,
          "internalType": "uint256",
          "name": "",
          "type": "uint256"
        },
        {
          "indexed": false,
          "internalType": "uint64",
          "name": "",
          "type": "uint64"
        }
      ],
      "name": "ScenarioAdded",
      "type": "event"
    },
    {
      "anonymous": false,
      "inputs": [
        {
          "indexed": true,
          "internalType": "address",
          "name": "",
          "type": "address"
        },
        {
          "indexed": true,
          "internalType": "uint64",
          "name": "",
          "type": "uint64"
        }
      ],
      "name": "ScenarioExecuted",
      "type": "event"
    },
    {
      "anonymous": false,
      "inputs": [
        {
          "indexed": true,
          "internalType": "address",
          "name": "",
          "type": "address"
        },
        {
          "indexed": true,
          "internalType": "uint64",
          "name": "",
          "type": "uint64"
        }
      ],
      "name": "ScenarioRemoved",
      "type": "event"
    },
    {
      "inputs": [
        {
          "components": [
            {
              "internalType": "address",
              "name": "owner",
              "type": "address"
            },
            {
              "internalType": "address",
              "name": "actor",
              "type": "address"
            },
            {
              "internalType": "address",
              "name": "input_token",
              "type": "address"
            },
            {
              "internalType": "uint256",
              "name": "input_amount",
              "type": "uint256"
            },
            {
              "components": [
                {
                  "internalType": "enum TriggerType",
                  "name": "trigger_type",
                  "type": "uint8"
                },
                {
                  "components": [
                    {
                      "internalType": "address",
                      "name": "addr",
                      "type": "address"
                    },
                    {
                      "internalType": "uint8",
                      "name": "kind",
                      "type": "uint8"
                    },
                    {
                      "internalType": "uint8",
                      "name": "condition",
                      "type": "uint8"
                    },
                    {
                      "internalType": "bytes",
                      "name": "input",
                      "type": "bytes"
                    }
                  ],
                  "internalType": "struct SourceData[]",
                  "name": "sources_to_verify",
                  "type": "tuple[]"
                },
                {
                  "components": [
                    {
                      "internalType": "address",
                      "name": "executor",
                      "type": "address"
                    },
                    {
                      "internalType": "bytes",
                      "name": "input",
                      "type": "bytes"
                    }
                  ],
                  "internalType": "struct ActionData[]",
                  "name": "actions_chain",
                  "type": "tuple[]"
                }
              ],
              "internalType": "struct Script[]",
              "name": "scripts",
              "type": "tuple[]"
            }
          ],
          "internalType": "struct Scenario",
          "name": "scenario",
          "type": "tuple"
        },
        {
          "internalType": "uint64",
          "name": "index_id",
          "type": "uint64"
        }
      ],
      "name": "addScenario",
      "outputs": [
        {
          "internalType": "uint64",
          "name": "id",
          "type": "uint64"
        }
      ],
      "stateMutability": "nonpayable",
      "type": "function"
    },
    {
      "inputs": [
        {
          "internalType": "address",
          "name": "addr",
          "type": "address"
        }
      ],
      "name": "checkActionRegister",
      "outputs": [
        {
          "internalType": "bool",
          "name": "",
          "type": "bool"
        }
      ],
      "stateMutability": "view",
      "type": "function"
    },
    {
      "inputs": [
        {
          "internalType": "address",
          "name": "addr",
          "type": "address"
        }
      ],
      "name": "checkSourceRegister",
      "outputs": [
        {
          "internalType": "bool",
          "name": "",
          "type": "bool"
        }
      ],
      "stateMutability": "view",
      "type": "function"
    },
    {
      "inputs": [
        {
          "internalType": "address",
          "name": "owner",
          "type": "address"
        },
        {
          "internalType": "uint64",
          "name": "id",
          "type": "uint64"
        },
        {
          "internalType": "uint8",
          "name": "scriptIndex",
          "type": "uint8"
        }
      ],
      "name": "executeScenario",
      "outputs": [],
      "stateMutability": "nonpayable",
      "type": "function"
    },
    {
      "inputs": [],
      "name": "getCounter",
      "outputs": [
        {
          "internalType": "uint256",
          "name": "",
          "type": "uint256"
        }
      ],
      "stateMutability": "view",
      "type": "function"
    },
    {
      "inputs": [],
      "name": "getExecutionPausedState",
      "outputs": [
        {
          "internalType": "bool",
          "name": "",
          "type": "bool"
        }
      ],
      "stateMutability": "view",
      "type": "function"
    },
    {
      "inputs": [
        {
          "internalType": "uint64",
          "name": "id",
          "type": "uint64"
        }
      ],
      "name": "getScenario",
      "outputs": [
        {
          "internalType": "bool",
          "name": "",
          "type": "bool"
        },
        {
          "components": [
            {
              "internalType": "address",
              "name": "owner",
              "type": "address"
            },
            {
              "internalType": "address",
              "name": "actor",
              "type": "address"
            },
            {
              "internalType": "address",
              "name": "input_token",
              "type": "address"
            },
            {
              "internalType": "uint256",
              "name": "input_amount",
              "type": "uint256"
            },
            {
              "components": [
                {
                  "internalType": "enum TriggerType",
                  "name": "trigger_type",
                  "type": "uint8"
                },
                {
                  "components": [
                    {
                      "internalType": "address",
                      "name": "addr",
                      "type": "address"
                    },
                    {
                      "internalType": "uint8",
                      "name": "kind",
                      "type": "uint8"
                    },
                    {
                      "internalType": "uint8",
                      "name": "condition",
                      "type": "uint8"
                    },
                    {
                      "internalType": "bytes",
                      "name": "input",
                      "type": "bytes"
                    }
                  ],
                  "internalType": "struct SourceData[]",
                  "name": "sources_to_verify",
                  "type": "tuple[]"
                },
                {
                  "components": [
                    {
                      "internalType": "address",
                      "name": "executor",
                      "type": "address"
                    },
                    {
                      "internalType": "bytes",
                      "name": "input",
                      "type": "bytes"
                    }
                  ],
                  "internalType": "struct ActionData[]",
                  "name": "actions_chain",
                  "type": "tuple[]"
                }
              ],
              "internalType": "struct Script[]",
              "name": "scripts",
              "type": "tuple[]"
            }
          ],
          "internalType": "struct Scenario",
          "name": "",
          "type": "tuple"
        }
      ],
      "stateMutability": "view",
      "type": "function"
    },
    {
      "inputs": [
        {
          "internalType": "address",
          "name": "owner",
          "type": "address"
        }
      ],
      "name": "getScenariosByOwner",
      "outputs": [
        {
          "components": [
            {
              "internalType": "uint64",
              "name": "id",
              "type": "uint64"
            },
            {
              "components": [
                {
                  "internalType": "address",
                  "name": "owner",
                  "type": "address"
                },
                {
                  "internalType": "address",
                  "name": "actor",
                  "type": "address"
                },
                {
                  "internalType": "address",
                  "name": "input_token",
                  "type": "address"
                },
                {
                  "internalType": "uint256",
                  "name": "input_amount",
                  "type": "uint256"
                },
                {
                  "components": [
                    {
                      "internalType": "enum TriggerType",
                      "name": "trigger_type",
                      "type": "uint8"
                    },
                    {
                      "components": [
                        {
                          "internalType": "address",
                          "name": "addr",
                          "type": "address"
                        },
                        {
                          "internalType": "uint8",
                          "name": "kind",
                          "type": "uint8"
                        },
                        {
                          "internalType": "uint8",
                          "name": "condition",
                          "type": "uint8"
                        },
                        {
                          "internalType": "bytes",
                          "name": "input",
                          "type": "bytes"
                        }
                      ],
                      "internalType": "struct SourceData[]",
                      "name": "sources_to_verify",
                      "type": "tuple[]"
                    },
                    {
                      "components": [
                        {
                          "internalType": "address",
                          "name": "executor",
                          "type": "address"
                        },
                        {
                          "internalType": "bytes",
                          "name": "input",
                          "type": "bytes"
                        }
                      ],
                      "internalType": "struct ActionData[]",
                      "name": "actions_chain",
                      "type": "tuple[]"
                    }
                  ],
                  "internalType": "struct Script[]",
                  "name": "scripts",
                  "type": "tuple[]"
                }
              ],
              "internalType": "struct Scenario",
              "name": "scenario",
              "type": "tuple"
            }
          ],
          "internalType": "struct ScenarioWrapper[]",
          "name": "m_scenarios",
          "type": "tuple[]"
        }
      ],
      "stateMutability": "view",
      "type": "function"
    },
    {
      "inputs": [
        {
          "internalType": "address",
          "name": "owner",
          "type": "address"
        }
      ],
      "name": "getScenariosIdsByOwner",
      "outputs": [
        {
          "internalType": "uint64[]",
          "name": "m_ids",
          "type": "uint64[]"
        }
      ],
      "stateMutability": "view",
      "type": "function"
    },
    {
      "inputs": [
        {
          "internalType": "uint64",
          "name": "id",
          "type": "uint64"
        }
      ],
      "name": "removeScenario",
      "outputs": [],
      "stateMutability": "nonpayable",
      "type": "function"
    },
    {
      "inputs": [
        {
          "internalType": "bool",
          "name": "value",
          "type": "bool"
        }
      ],
      "name": "updateExecutionPauseState",
      "outputs": [],
      "stateMutability": "nonpayable",
      "type": "function"
    },
    {
      "inputs": [
        {
          "internalType": "enum RegisterType",
          "name": "t",
          "type": "uint8"
        },
        {
          "internalType": "address",
          "name": "addr",
          "type": "address"
        },
        {
          "internalType": "bool",
          "name": "value",
          "type": "bool"
        }
      ],
      "name": "updateRegister",
      "outputs": [],
      "stateMutability": "nonpayable",
      "type": "function"
    }
  ],
  "bytecode": {
    "object": "0x60803461007557601f61228038819003918201601f19168301916001600160401b0383118484101761007a5780849260209460405283398101031261007557516001600160a01b0381169081900361007557600160005560018060a01b031960015416176001556040516121ef90816100918239f35b600080fd5b634e487b7160e01b600052604160045260246000fdfe608080604052600436101561001357600080fd5b60003560e01c9081631e12ba711461161957508063255ca0e4146110125780632c85f2f214610e7f5780633b823a581461056c578063464a586c1461054657806352cc948f14610437578063587cd8b214610286578063857efc1c1461024757806388e1d433146101555780638ada066e1461012b578063b477ecb6146100ec5763c65e3dd6146100a357600080fd5b346100e75760203660031901126100e7576100c46100bf6116d4565b611c71565b906100e36040519283921515835260406020840152604083019061174a565b0390f35b600080fd5b346100e75760203660031901126100e7576001600160a01b0361010d6116a8565b166000526004602052602060ff604060002054166040519015158152f35b346100e75760003660031901126100e75760206001600160401b0360015460a81c16604051908152f35b346100e7576020806003193601126100e7576001600160a01b036101776116a8565b1690816000526003918282526001600160401b03928360406000205416906101b76101a18361199b565b926101af604051948561194c565b80845261199b565b8285019190601f19013683378560005b85600052828752604060002090828254168382169081101561020a57600180938260005201895261020084604060002054169188611cc7565b52011686906101c7565b604080518a81528851818c01819052869282019089908d60005b8281106102315785850386f35b8351871685529381019392810192600101610224565b346100e75760203660031901126100e7576001600160a01b036102686116a8565b166000526005602052602060ff604060002054166040519015158152f35b346100e7576020806003193601126100e7576102a06116d4565b33600090815260038352604090819020905163a16757e560e01b815260048101919091526001600160401b038216602482015273__$dbb2c0ef45d00fb8d3120c7996bb569251$__9291908281604481875af49081156103fc5760009161041a575b50156104085781816001600160401b0361039693169485600052600283526103426040600020600360018060a01b0360028301541691015490339061214e565b856000526002835261035760406000206120c6565b33600052600383526040600020604051809581948293630889348960e11b8452600484019092916001600160401b036020916040840195845216910152565b03915af480156103fc576103ce575b82337f6803e0ed4f58a69fdd38544ce889caca8b1518aa0219dede5478b0ffeaec351d600080a3005b816103ed92903d106103f5575b6103e5818361194c565b810190611ed5565b5081806103a5565b503d6103db565b6040513d6000823e3d90fd5b6040516306f6322160e01b8152600490fd5b6104319150833d85116103f5576103e5818361194c565b84610302565b346100e75760603660031901126100e75760043560028110156100e7576001600160a01b03602435818116908190036100e75760443591821515908184036100e7576001541633036105355761048c846116ea565b836104e457818461049f6104e2966116ea565b7f01c55a27bc061ae0cfc00460186e336ea74a2e38415e9e33a35bf01a6c523001600080a4600052600460205260406000209060ff801983541691151516179055565b005b81846104f26104e2966116ea565b7f01c55a27bc061ae0cfc00460186e336ea74a2e38415e9e33a35bf01a6c523001600080a4600052600560205260406000209060ff801983541691151516179055565b6040516282b42960e81b8152600490fd5b346100e75760003660031901126100e757602060ff60015460a01c166040519015158152f35b346100e7576003196040368201126100e757600435906001600160401b0382116100e75760a09082360301126100e7576105a46116be565b6001600160a01b036105b860248401611cdb565b1615610e6d576001600160a01b036105d260448401611cdb565b1615610e5b57606482013515610e49576000905b6105f66084840184600401611cef565b905060ff831610156107b45760005b61062f61062561061b6084870187600401611cef565b60ff871691611d39565b6020810190611cef565b905060ff821610156106e35761065161062561061b6084870187600401611cef565b60ff831610156106cd5761066f90611fe08360051b16810190611d50565b6001600160a01b0361068082611cdb565b16600052600460205260ff60406000205416156106a3575060010160ff16610605565b6106ae602491611cdb565b60405163fccbaf5560e01b81526001600160a01b039091166004820152fd5b634e487b7160e01b600052603260045260246000fd5b5060005b6107076106fd61061b6084870187600401611cef565b6040810190611cef565b905060ff821610156107a5576107296106fd61061b6084870187600401611cef565b60ff831610156106cd57610748600591611fe084841b16810190611d65565b906001600160a01b0361075a83611cdb565b1660005260205260ff604060002054161561077b575060010160ff166106e7565b610786602491611cdb565b604051633750c75d60e01b81526001600160a01b039091166004820152fd5b5090600160ff910116906105e6565b90506108056001600160a01b036107cd60448501611cdb565b6040516323b872dd60e01b6020820152336024820152306044820152606486810135818301528152911661080082611931565b611eed565b600154906001600160401b0360a81b60016001600160401b038460a81c160160a81b166001600160401b0360a81b198316176001556001600160401b036001818460a81c160116600052600260205260406000209260018060a01b0361086d82600401611cdb565b85546001600160a01b0319169116178455600184016001600160a01b0361089660248401611cdb565b82546001600160a01b0319169116179055600284016001600160a01b036108bf60448401611cdb565b82546001600160a01b0319169116179055606481013560038501556108ea6084820160048301611cef565b9094600160401b8211610c36576004810154826004830155808310610dd0575b506004016000908152602081209095805b838810610a275761097b8787873360005260036020526020604060002060405180968192631f098cb360e11b83526001600160401b036001818a60a81c16011690600484019092916001600160401b036020916040840195845216910152565b038173__$dbb2c0ef45d00fb8d3120c7996bb569251$__5af49081156103fc57602094606492610a0a575b506001600160401b03604051931683520135906001600160401b036001818560a81c160116907f853f00b300167f624f546cbcfa26986ea07d61a86013538a7ad783e5902e56f6853392a46001600160401b036001816040519360a81c1601168152f35b610a2090863d88116103f5576103e5818361194c565b50856109a6565b610a318183611d24565b6002813510156100e757610a4581356116ea565b60ff1984541660ff82351617845560018401610a646020830183611cef565b90610a6f8284611e2e565b60009283526020832090805b838510610c4c575050505050610a9960028501916040810190611cef565b90610aa48284611e2e565b60009283526020832090805b838510610acf575050505050600360206001920193019701969161091b565b610b08610adc8284611d65565b6001600160a01b03610aed82611cdb565b86546001600160a01b03191691161785556020810190611ea3565b906001600160401b038211610c3657610b2460018601546119b2565b90601f91828111610bf9575b506000918311600114610b845792610b6883600294602094600197600092610b79575b50508160011b916000199060031b1c19161790565b848701555b01930194019391610ab0565b013590503880610b53565b6001860160005260206000209160005b601f1985168110610be1575083602093600196938793600297601f19811610610bc7575b505050811b0184870155610b6d565b0135600019600384901b60f8161c19169055388080610bb8565b90926020600181928686013581550194019101610b94565b610c2790600188016000526020600020600585808801821c83019360208910610c2d575b01901c0190611d7a565b38610b30565b93508293610c1d565b634e487b7160e01b600052604160045260246000fd5b610cb8610c598284611d50565b6001600160a01b03610c6a82611cdb565b8654911660ff60a01b610c7f60208501611e95565b60a01b169060ff60a81b610c9560408601611e95565b60a81b169269ffffffffffffffffffff60b01b1617171785556060810190611ea3565b906001600160401b038211610c3657610cd460018601546119b2565b90601f91828111610d9d575b506000918311600114610d285792610d1783600294602094600197600092610b795750508160011b916000199060031b1c19161790565b848701555b01930194019391610a7b565b6001860160005260206000209160005b601f1985168110610d85575083602093600196938793600297601f19811610610d6b575b505050811b0184870155610d1c565b0135600019600384901b60f8161c19169055388080610d5c565b90926020600181928686013581550194019101610d38565b610dca90600188016000526020600020600585808801821c83019360208910610c2d5701901c0190611d7a565b38610ce0565b6003818102048103610e33576003838102048303610e33576004820160005260206000208360030281015b8260030282018110610e0e57505061090a565b80600060039255610e2160018201611de1565b610e2d60028201611de1565b01610dfb565b634e487b7160e01b600052601160045260246000fd5b60405163340dabef60e01b8152600490fd5b6040516310bc6cbf60e21b8152600490fd5b6040516370e4510960e01b8152600490fd5b346100e7576020806003193601126100e7576001600160a01b03610ea16116a8565b1690816000526003918282526001600160401b0392836040600020541690610ecb6101a18361199b565b601f19018460005b828110610fe8575050508460005b846000528286526040600020908282541683821690811015610f7257610f68906001809482600052018952846040600020541688600052868a5284604060002001826000528a52856040600020541660005260028a52610f53604060002060405192610f4c84611916565b8352611a90565b8a820152610f618289611cc7565b5286611cc7565b5001168590610ee1565b83888760405191808301818452825180915260408401918060408360051b8701019401926000965b838810610fa75786860387f35b90919293948380610fd7600193603f198b82030187526040838b518881511684520151918185820152019061174a565b970193019701969093929193610f9a565b604051610ff481611916565b6000815261100061196d565b83820152828287010152018590610ed3565b346100e75760603660031901126100e75761102b6116a8565b6110336116be565b9060ff60443516604435036100e7576002600054146115d457600260005560ff60015460a01c166115c2576001600160a01b0316600090815260036020908152604091829020915163a16757e560e01b815260048101929092526001600160401b03831660248301528160448173__$dbb2c0ef45d00fb8d3120c7996bb569251$__5af49081156103fc576000916115a3575b5015610408576001600160401b0381166000908152600260205260409020600101546001600160a01b03163303611591576001600160401b03811660005260026020526040600020600481015460443510156106cd5760048101600052602060002060009260005b60016003604435028401015460ff821610156115885761115881600160036044350286010161219d565b50805460405190611168826118fb565b60ff8160a01c16825260ff8160a81c166020830152611189600184016119ec565b60408301526001600160a01b0381163b156100e75760406000916111eb9383835180968195829463014068b560e31b84526020600485015260ff815116602485015260ff6020820151166044850152015160606064840152608483019061170a565b03926001600160a01b03165af19081611571575b5061124f5760ff60036044350285015416611219816116ea565b1561122c5750600160ff915b011661112e565b5460405163c4fec1c960e01b81526001600160a01b039091166004820152602490fd5b50600160ff60036044350285015416611267816116ea565b1461127657600160ff91611225565b509190925060015b600160ff60036044350286015416611295816116ea565b149081611568575b50611556576002810154600390910154604051916001600160a01b03166112c383611916565b82526020820152906000905b60026003604435028501015460ff8316101561143a57611395604060206113008560026003604435028a010161219d565b5086518154838901519298926113249290916001600160a01b03908116911661214e565b865483516001600160a01b039091169161133d82611916565b815261134b600189016119ec565b8382015260008451809681958294639733689360e01b845281600485015281815160018060a01b03815116602487015201516044850152015160606064840152608483019061170a565b03925af1600091816113db575b506113cb578354604051634579ef8160e11b81526001600160a01b039091166004820152602490fd5b9250600190910160ff16906112cf565b9091506040813d604011611432575b816113f76040938361194c565b810103126100e7576040519061140c82611916565b8051906001600160a01b03821682036100e75760209183520151602082015290866113a2565b3d91506113ea565b82516001600160a01b0316158015908490611548575b5061153657806001600160401b036114ba9216600052600260205261147860406000206120c6565b33600052600360205260208160406000206040519485928392630889348960e11b8452600484019092916001600160401b036020916040840195845216910152565b038173__$dbb2c0ef45d00fb8d3120c7996bb569251$__5af49182156103fc576001600160401b0392611517575b5016337fcba3888b1d2ac31a5e790781523a8f461bfce2e8e6426f721b7ff8234ec05d14600080a36001600055005b61152f9060203d6020116103f5576103e5818361194c565b50826114e8565b60405163fc310d3760e01b8152600490fd5b602091500151151582611450565b60405163625274d360e11b8152600490fd5b9050158461129d565b6001600160401b038111610c3657604052876111ff565b5091909261127e565b60405163411b144360e11b8152600490fd5b6115bc915060203d6020116103f5576103e5818361194c565b826110c6565b60405163692da15f60e01b8152600490fd5b60405162461bcd60e51b815260206004820152601f60248201527f5265656e7472616e637947756172643a207265656e7472616e742063616c6c006044820152606490fd5b346100e75760203660031901126100e7576004358015158091036100e757600154916001600160a01b038316330361169a5750807f2eb8621bbf26c3a630413e9455ca8d14cddc0d81af9d8d8869ae0e2916fcccd9602060405160ff8660a01c1615158152a260ff60a01b1990911660a09190911b60ff60a01b1617600155005b6282b42960e81b8152600490fd5b600435906001600160a01b03821682036100e757565b602435906001600160401b03821682036100e757565b600435906001600160401b03821682036100e757565b600211156116f457565b634e487b7160e01b600052602160045260246000fd5b919082519283825260005b848110611736575050826000602080949584010152601f8019910116010190565b602081830181015184830182015201611715565b90608060a082019260018060a01b03815116835260018060a01b03602082015116602084015260018060a01b0360408201511660408401526060810151606084015201519160a06080830152825180915260c0820191602060c08360051b8301019401926000915b8383106117c157505050505090565b909192939460bf198282030183528551606082019080516117e1816116ea565b835260208101519160606020850152825180915260808401602060808360051b87010194019160005b8181106118a0575050505060400151916040818303910152815180825260208201906020808260051b85010194019260005b82811061185d575050505050602080600192970193019301919392906117b2565b9091929394602080611893600193601f198782030189526040838b51878060a01b0381511684520151918185820152019061170a565b970195019392910161183c565b909192946020806118ef600193607f198b8203018852608060608b51878060a01b0381511684528581015160ff809116878601526040820151166040850152015191816060820152019061170a565b9701940192910161180a565b606081019081106001600160401b03821117610c3657604052565b604081019081106001600160401b03821117610c3657604052565b60a081019081106001600160401b03821117610c3657604052565b90601f801991011681019081106001600160401b03821117610c3657604052565b6040519061197a82611931565b60606080836000815260006020820152600060408201526000838201520152565b6001600160401b038111610c365760051b60200190565b90600182811c921680156119e2575b60208310146119cc57565b634e487b7160e01b600052602260045260246000fd5b91607f16916119c1565b906040519182600082546119ff816119b2565b908184526020946001918281169081600014611a6e5750600114611a2f575b505050611a2d9250038361194c565b565b600090815285812095935091905b818310611a56575050611a2d9350820101388080611a1e565b85548884018501529485019487945091830191611a3d565b92505050611a2d94925060ff191682840152151560051b820101388080611a1e565b90604051611a9d81611931565b82546001600160a01b03908116825260018401548116602083015260028401541660408201526003830154606082015260049092018054908390611ae08361199b565b92611aee604051948561194c565b80845260208401916000526020600020916000905b828210611b14575050505060800152565b604051611b20816118fb565b60ff855416611b2e816116ea565b815260018501805490611b408261199b565b91611b4e604051938461194c565b80835260208301916000526020600020916000905b828210611c0757505050506020820152600285018054611b828161199b565b91611b90604051938461194c565b81835260208301906000526020600020906000905b838210611bcc57505050506001928260209260406003950152815201940191019092611b03565b60026020600192604051611bdf81611916565b848060a01b038754168152611bf58588016119ec565b83820152815201930191019091611ba5565b604051908160808101106001600160401b03608084011117610c365760206002918360806001950160405260ff8854868060a01b0381168352818160a01c168584015260a81c166040820152611c5e8589016119ec565b6060820152815201940191019092611b63565b6001600160401b0390611c8261196d565b50168060005260026020526040600020600381015415611cb957506000526002602052604060002090611cb6600192611a90565b90565b919050611cb6600092611a90565b80518210156106cd5760209160051b010190565b356001600160a01b03811681036100e75790565b903590601e19813603018212156100e757018035906001600160401b0382116100e757602001918160051b360383136100e757565b903590605e19813603018212156100e7570190565b908210156106cd57611cb69160051b810190611d24565b903590607e19813603018212156100e7570190565b903590603e19813603018212156100e7570190565b818110611d85575050565b60008155600101611d7a565b600160009182815501611da481546119b2565b80611dae57505050565b82601f8211600114611dbf57505055565b9091808252611ddd601f60208420940160051c840160018501611d7a565b5555565b8054906000815581611df1575050565b6001600160ff1b0382168203610e335760005260206000209060011b8101905b818110611e1c575050565b80611e28600292611d91565b01611e11565b600160401b8211610c3657805490828155818310611e4b57505050565b6001600160ff1b038281168303610e335783168303610e335760005260206000209060011b81019160011b015b818110611e83575050565b80611e8f600292611d91565b01611e78565b3560ff811681036100e75790565b903590601e19813603018212156100e757018035906001600160401b0382116100e7576020019181360383136100e757565b908160209103126100e7575180151581036100e75790565b6040516001600160a01b03909116929190611f0781611916565b6020918282527f5361666545524332303a206c6f772d6c6576656c2063616c6c206661696c6564838301526000808285829451910182895af13d1561201d573d956001600160401b03871161200957611f8194959660405190611f7388601f19601f840116018361194c565b81528093873d92013e612029565b805190828215928315611ff1575b50505015611f9a5750565b6084906040519062461bcd60e51b82526004820152602a60248201527f5361666545524332303a204552433230206f7065726174696f6e20646964206e6044820152691bdd081cdd58d8d9595960b21b6064820152fd5b6120019350820181019101611ed5565b388281611f8f565b634e487b7160e01b83526041600452602483fd5b611f8193949591506060915b9192901561208b575081511561203d575090565b3b156120465790565b60405162461bcd60e51b815260206004820152601d60248201527f416464726573733a2063616c6c20746f206e6f6e2d636f6e74726163740000006044820152606490fd5b82519091501561209e5750805190602001fd5b60405162461bcd60e51b8152602060048201529081906120c290602483019061170a565b0390fd5b6000808255600181818401556002908282850155600460039484868201550192835493818155846120fa575b505050505050565b848602948686040361213a57815260208120938401935b848110156120f2578082879255612129848201611de1565b612134858201611de1565b01612111565b634e487b7160e01b82526011600452602482fd5b60405163a9059cbb60e01b60208201526001600160a01b03909216602483015260448083019390935291815260808101916001600160401b03831182841017610c3657611a2d92604052611eed565b80548210156106cd5760005260206000209060011b019060009056fea26469706673582212208b3f4627fb62a30ccd80953fa5a7a1b55e1e583ed0c4dd517823bc39475c483564736f6c63430008150033",
    "linkReferences": {
      "src/libraries/List.sol": {
        "ListLibrary": [
          {
            "start": 870,
            "length": 20
          },
          {
            "start": 2576,
            "length": 20
          },
          {
            "start": 4403,
            "length": 20
          },
          {
            "start": 5455,
            "length": 20
          }
        ]
      }
    }
  },
  "methodIdentifiers": {
    "addScenario((address,address,address,uint256,(uint8,(address,uint8,uint8,bytes)[],(address,bytes)[])[]),uint64)": "3b823a58",
    "checkActionRegister(address)": "857efc1c",
    "checkSourceRegister(address)": "b477ecb6",
    "executeScenario(address,uint64,uint8)": "255ca0e4",
    "getCounter()": "8ada066e",
    "getExecutionPausedState()": "464a586c",
    "getScenario(uint64)": "c65e3dd6",
    "getScenariosByOwner(address)": "2c85f2f2",
    "getScenariosIdsByOwner(address)": "88e1d433",
    "removeScenario(uint64)": "587cd8b2",
    "updateExecutionPauseState(bool)": "1e12ba71",
    "updateRegister(uint8,address,bool)": "52cc948f"
  },
  "id": 28
}